S02000006166746572466972737453656D4578616D696E6174696F6E2E7372656348
S11300000C946B000C944B020C9477030C948800B2
S11300100C9488000C9488000C9488000C9488003C
S11300200C9488000C9488000C9488000C9488002C
S11300300C9488000C9488000C9488000C9488001C
S11300400C9488000C9488000C9488000C9488000C
S11300500C94880007634236B79BD8A71A396856B0
S113006018AEBAAB558C1D3CB7CC5763BD6DEDFDD6
S1130070753EF6177231BF000000803F0800000093
S1130080BE922449123EABAAAA2ABECDCCCC4C3E89
S113009000000080BEABAAAAAA3E00000000BF0078
S11300A00000803F0000000000084178D3BB438774
S11300B0D1133D190E3CC3BD4282AD2B3E68EC8288
S11300C076BED98FE1A93E4C80EFFFBE01C4FF7F0D
S11300D03F000000000011241FBECFE5D8E0DEBFC2
S11300E0CDBF10E0A0E6B0E0E8E0FDE102C005907D
S11300F00D92A239B107D9F720E0A2E9B0E001C01E
S11301001D92A43DB207E1F70E946D050C94820E86
S11301100C9400008FEE82BB809908C08FE99FE0A9
S11301200197F1F700C0000087E00895819908C0A5
S11301308FE99FE00197F1F700C0000088E008957F
S1130140829908C08FE99FE00197F1F700C0000091
S113015089E00895839908C08FE99FE00197F1F73A
S113016000C000008DE008958FED82BB809908C027
S11301708FE99FE00197F1F700C0000084E0089543
S1130180819908C08FE99FE00197F1F700C0000052
S113019085E00895829908C08FE99FE00197F1F7FF
S11301A000C0000086E00895839908C08FE99FE0AD
S11301B00197F1F700C000008EE008958FEB82BB39
S11301C0809908C08FE99FE00197F1F700C0000013
S11301D081E00895819908C08FE99FE00197F1F7C4
S11301E000C0000082E00895829908C08FE99FE072
S11301F00197F1F700C0000083E00895839908C0D7
S11302008FE99FE00197F1F700C000008FE00895A7
S11302108FE782BB809908C08FE99FE00197F1F7CF
S113022000C000008AE00895819908C08FE99FE02A
S11302300197F1F700C000008BE00895829908C08F
S11302408FE99FE00197F1F700C000008CE008956A
S1130250839908C08FE99FE00197F1F700C000007F
S113026080E1089580E0089540E050E00AC02F5FE7
S11302703F4F02C020E030E029373105C4F34F5F1F
S11302805F4F84179507B4F7089583B1826083B9EB
S113029084E886BF06B607FEFDCF81E090E00E94A9
S11302A0340183B18D7F83B984E886BF06B607FE27
S11302B0FDCF089593B19E7F93B994E896BF06B697
S11302C007FEFDCF93B19F7093B994E896BF06B62D
S11302D007FEFDCF93B1807F892B83B984E886BF65
S11302E006B607FEFDCF0E9445010895CF93C82F9F
S11302F083B18E7F83B984E886BF06B607FEFDCF3F
S113030083B18F7083B984E886BF06B607FEFDCF3C
S113031083B19C2F907F892B83B984E886BF06B66E
S113032007FEFDCF0E94450183B18F7083B984E835
S113033086BF06B607FEFDCF23B130E1C39FC001DF
S11303401124822B83B984E886BF06B607FEFDCF4D
S11303500E944501CF91089580E30E945A0180E3F1
S11303600E945A0180E20E945A0188E20E947601AA
S11303708CE00E94760181E00E94760186E00E9472
S1130380760180E80E9476010895CF93C82F83B147
S1130390816083B984E886BF06B607FEFDCF83B1CA
S11303A08F7083B984E886BF06B607FEFDCF83B19C
S11303B09C2F907F892B83B984E886BF06B607FEFD
S11303C0FDCF0E94450183B18F7083B984E886BF55
S11303D006B607FEFDCF23B130E1C39FC00111244F
S11303E0822B83B984E886BF06B607FEFDCF0E9440
S11303F04501CF910895CF93DF93EC0103C021967B
S11304000E94C50188818111FACFDF91CF910895AF
S113041097B3936097BB9BB790649BBF95B792606B
S113042095BF78949091610090FD1FC098B391603E
S113043098BBEFE3FCE93197F1F700C00000883086
S113044051F488B3826088BB8FE39CE90197F1F78C
S113045000C000000DC088B38D7F88BBEFE3FCE9CA
S11304603197F1F700C0000003C088B38C7F88BBCC
S11304708FE99FE00197F1F700C00000089587B36A
S1130480836087BB80E48BBF82E085BF789488B3A8
S11304908C7F88BB08951F920F920FB60F92112480
S11304A08F939F93809161008F5F809361008FE9A8
S11304B09FE00197F1F700C000009F918F910F908A
S11304C00FBE0F901F9018958AB381608ABB089560
S11304D08BB381608BBB85E38A95F1F700008BB306
S11304E08E7F8BBB089580E090E0DC0105C0C99944
S11304F00AC00196A11DB11D803E23E9920724E0A4
S1130500A207B105A0F3803E9349A440B10531F19F
S11305101FBC82E08EBD1DBC1CBC80E090E0DC01F1
S113052007C0C99B0CC02CB53DB50196A11DB11DDA
S1130530803E23E9920724E0A207B10590F3803EB0
S11305409349A440B10569F08CB59DB5A0E0B0E035
S11305501EBCB695A7959795879508958FEF9FEF45
S113056008958EEF9FEF089582E680B984E086BFF8
S113057011B8089584EA86BF06B607FEFDCF089534
S113058083B984E886BF06B607FEFDCF0895CF93EE
S1130590DF931F929FED9F931F928F9382E690E0CB
S11305A09F938F93CDE9D0E0DF93CF930E94980B74
S11305B085EC0E947601CE010E94FB01EFE3FFE18E
S11305C03197F1F700C000008AE0FE0111928A958C
S11305D0E9F78DB79EB708960FB6F8949EBF0FBE85
S11305E08DBFDF91CF9108959AB39B7F9ABB97E813
S11305F096B992EE97B996B1906496B9349BFECFB2
S113060095B19093C1008150823018F4892F0E94D3
S1130610C7028FE99FE00197F1F700C000008091C5
S1130620C10008958AB3877F8ABB87E886B983EEC1
S113063087B986B1806486B9349BFECF85B1809337
S1130640C1008FE99FE00197F1F700C0000080919D
S1130650C100089588B3806188BB8BB38F7D8BBB49
S113066008958BB380628BBB88B38F7E88BB08955B
S113067088B38F7E88BB8BB38F7D8BBB089585B386
S1130680806485BB089585B38F7B85BB0895809175
S113069060008CBF81E683BF85B7886085BF8BB758
S11306A080688BBF789493B383B38068981303C036
S11306B088B3806288BB809160008CBF089588B342
S11306C08F7D88BB1CBE0895853021F498B3906853
S11306D098BB03C098B39F7798BB823021F488B34A
S11306E0806488BB089588B38F7B88BB08951F926C
S11306F00F920FB60F9211248F9380916000813F67
S113070020F4845C8093600003C080E480936000E4
S113071085E38A95F1F700008F910F900FBE0F903B
S11307201F90189585B3846285BB8FE39CE901977C
S1130730F1F700C0000080E090E0089585B38B7F5E
S113074085BB8FE39CE90197F1F700C0000080E0CE
S113075090E0089585B3886285BB8FE39CE9019797
S1130760F1F700C0000080E090E0089585B38F7D2C
S113077085BB8FE39CE90197F1F700C0000080E09E
S113078090E0089585B3886185BB8FE39CE9019768
S1130790F1F700C0000080E090E0089585B3877F02
S11307A085BB8FE39CE90197F1F700C0000080E06E
S11307B090E0089585B3846185BB8FE39CE901973C
S11307C0F1F700C0000080E090E0089585B38F7ECB
S11307D085BB8FE39CE90197F1F700C0000080E03E
S11307E090E0089585B3846185BB8FE39CE901970C
S11307F0F1F700C0000080E090E0089585B38B7F9E
S113080085BB8FE39CE90197F1F700C0000080E00D
S113081090E0089585B3886185BB8FE39CE90197D7
S1130820F1F700C0000080E090E0089585B38F7E6A
S113083085BB8FE39CE90197F1F700C0000080E0DD
S113084090E0089585B3886285BB8FE39CE90197A6
S1130850F1F700C0000080E090E0089585B3877F41
S113086085BB8FE39CE90197F1F700C0000080E0AD
S113087090E0089585B3846285BB8FE39CE901977A
S1130880F1F700C0000080E090E0089585B38F7D0B
S113089085BB8FE39CE90197F1F700C0000080E07D
S11308A090E00895CF93DF93682F70E080E090E0AC
S11308B00E94B30820E030E048EC52E40E940908AA
S11308C020E030E040E051E40E943F0920E030E0C5
S11308D040E451E40E949C0723E333E343E350E400
S11308E00E94090820E030E048EC52E40E943F09ED
S11308F00E947B087F936F938AE690E09F938F9387
S1130900C8ECD0E0DF93CF930E94980BCE010E94F5
S1130910FB01EFE3FFE13197F1F700C000008AE04B
S1130920FE0111928A95E9F70F900F900F900F90A6
S11309300F900F90DF91CF91089587E886B984EEE8
S113094087B986B1806486B9349BFECF85B1809324
S1130950C1000E9452048FE99FE00197F1F700C0A3
S1130960000080E008958F929F92AF92BF92CF9241
S1130970DF92EF92FF92CF93DF93C7E1D0E0C12CD7
S1130980D12C760127C0FE01E955FF4F80818033C9
S113099001F567E170E06C1B7D0B072E000C880BE2
S11309A0990B0E94B3089B01AC0160E070E080E009
S11309B090E40E94AC094B015C01C701B6010E949E
S11309C0B308A50194010E949D070E947B086B0156
S11309D07C012197DD23BCF6C701B6010E94B30850
S11309E020E030E040E85FE30E949D0724EB32EA18
S11309F048EE57E30E943F090E94FC090E947B08CD
S1130A00AB017093C0006093BF00413D81E0580783
S1130A1019F5E3ECF0E080E38083AFE3BFE11197E5
S1130A20F1F700C00000818320E030E01AC0CA0161
S1130A306AE070E00E94700BF901ED53FF4F805D96
S1130A408083462F572F2F5F3F4F8FE99FE00197F9
S1130A50F1F700C0000002C020E030E014161506D3
S1130A6034F3822FDF91CF91FF90EF90DF90CF90FE
S1130A70BF90AF909F908F9008958BB380648BBB91
S1130A8080E090E018C02BB320682BBB2AE02A95A5
S1130A90F1F700C02BB32F772BBBCE9B02C021E311
S1130AA001C020E3FC01E955FF4F20832AE02A9589
S1130AB0F1F700C00196883191052CF38BB380685F
S1130AC08BBB8AE08A95F1F700C08BB38F778BBB21
S1130AD00E94B3048093D20008958AB380688ABBCD
S1130AE08AB38F7E8ABB87B3846087BB80EF81BB68
S1130AF084B3836084BB8AB380628ABB87B380611A
S1130B0087BB84B3806484BB84B38F7784BB87B38F
S1130B10886F87BB84B38C6384BB0E94B4020E9439
S1130B20BA0280E70E94C0020E94AC018FE082BB3F
S1130B300E948A00809397008FE39CE90197F1F764
S1130B4000C0000080919700873021F0843011F0BC
S1130B50813011F4809396000E9464020E9468021E
S1130B600E9473028F3F2FEF920701F3BC0180E0D4
S1130B7090E00E94B10826E933E44BE05DE30E9473
S1130B803F0920E030E040E05FE30E943F090E941B
S1130B907B0870939C0060939B006F3071052CF070
S1130BA080919300873008F077C10E943D058091C1
S1130BB0BF009091C00040972CF4809197000E9450
S1130BC0080204C0809197000E943F028091920025
S1130BD0811105C08FE00E9476011092C20081E06D
S1130BE0809392008091C200811119C080E80E9414
S1130BF076018DE690E00E94FB010E949D0486E749
S1130C0090E00E94FB0180EC0E94760188E790E06E
S1130C100E94FB018091C2008F5F8093C20080918B
S1130C2095000E94F40280939A000E94120380931C
S1130C30D30090919A00973408F08BC0873408F061
S1130C4088C080919600873011F0843011F40E949E
S1130C503F0380919600813011F40E9443038091F8
S1130C609600873031F5909195009150953008F5B4
S1130C7080919A008D3180F40E9438038AEC0E949E
S1130C8076018FE39CE90197F1F700C000008EE73D
S1130C9090E00E94FB0116C00E94310381E0809322
S1130CA095008AEC0E9476018AE890E00E94FB019C
S1130CB009C0873039F480919500811103C081E027
S1130CC08093950080919600843039F59091950039
S1130CD0913041F0933031F0943021F0953011F09F
S1130CE09230D9F480919A008C3150F00E943803EC
S1130CF08AEC0E9476018EE790E00E94FB0118C006
S1130D000E942A0382E0809395008AEC0E94760177
S1130D108AE890E00E94FB010BC0843049F4809182
S1130D209500811105C00E942A0382E080939500FA
S1130D3080919600813021F50E94380383E08093EE
S1130D40950085EC0E94760185E890E00E94FB0105
S1130D5017C0973410F4873498F00E943F038FE350
S1130D609CE90197F1F700C000000E9438038FE36B
S1130D709CE90197F1F700C0000084E0809395009E
S1130D8093B383B38068981305C0809197000E9441
S1130D90470302C00E945F03809197000E9464038E
S1130DA0809197008A3099F5809194008F5F8093A9
S1130DB09400813011F40E94920380919400823057
S1130DC011F40E949E0380919400833011F40E94D8
S1130DD0AA0380919400843011F40E94B603809198
S1130DE09400853011F40E94C203809194008630EF
S1130DF011F40E94CE0380919400873011F40E9474
S1130E00DA0380919400883011F40E94E603809103
S1130E1097008B30A9F580919400883011F40E94DA
S1130E20F20380919400873011F40E94FE038091B4
S1130E309400863011F40E940A0480919400853055
S1130E4011F40E94160480919400843011F40E94DD
S1130E50220480919400833011F40E942E04809126
S1130E609400823011F40E943A04809194008130FD
S1130E7011F40E9446048091940081508093940060
S1130E8080919300883040F480919B0090919C0065
S1130E900F9714F41092930080919B0090919C0002
S1130EA00F970CF443CE809193008630D8F488B326
S1130EB0846088BB8FE19EE40197F1F700C00000D5
S1130EC088B38B7F88BB9FEF21EE84E09150204054
S1130ED08040E1F700C00000809193008F5F809311
S1130EE0930024CE863091F488B3846088BB9FEF4E
S1130EF021EE84E0915020408040E1F700C00000E2
S1130F00809193008F5F8093930010CE88B38B7F82
S1130F1088BB0E9443030E94380385E080939500B8
S1130F2088E00E94760110929200809197000E94BE
S1130F303F020E945F03FACD5058BB27AA270E94A4
S1130F40B4070C9405090E94F70838F00E94FE08C3
S1130F5020F039F49F3F19F426F40C94F4080EF4AD
S1130F60E095E7FB0C94EE08E92F0E94160958F36C
S1130F70BA17620773078407950720F079F4A6F57A
S1130F800C9438090EF4E0950B2EBA2FA02D0B010A
S1130F90B90190010C01CA01A0011124FF27591BBA
S1130FA099F0593F50F4503E68F11A16F040A22FC0
S1130FB0232F342F4427585FF3CF46953795279531
S1130FC0A795F0405395C9F77EF41F16BA0B620B30
S1130FD0730B840BBAF09150A1F0FF0FBB1F661F77
S1130FE0771F881FC2F70EC0BA0F621F731F841FBA
S1130FF048F4879577956795B795F7959E3F08F0E0
S1131000B0CF9395880F08F09927EE0F97958795A1
S113101008950E941D080C9405090E94FE0858F0CA
S11310200E94F70840F029F45F3F29F00C94EE0881
S113103051110C9439090C94F4080E94160968F3B0
S11310409923B1F3552391F3951B550BBB27AA277D
S113105062177307840738F09F5F5F4F220F331FB7
S1131060441FAA1FA9F335D00E2E3AF0E0E832D07F
S113107091505040E695001CCAF72BD0FE2F29D082
S1131080660F771F881FBB1F261737074807AB0754
S1131090B0E809F0BB0B802DBF01FF2793585F4FC9
S11310A03AF09E3F510578F00C94EE080C943909FF
S11310B05F3FE4F3983ED4F3869577956795B795AB
S11310C0F7959F5FC9F7880F911D9695879597F9B6
S11310D00895E1E0660F771F881FBB1F621773072F
S11310E08407BA0720F0621B730B840BBA0BEE1F44
S11310F088F7E09508950E9482086894B1110C94D1
S1131100390908950E941E0988F09F5798F0B92F55
S11311109927B751B0F0E1F0660F771F881F991F28
S11311201AF0BA95C9F714C0B13091F00E94380989
S1131130B1E008950C943809672F782F8827B85F99
S113114039F0B93FCCF3869577956795B395D9F780
S11311503EF490958095709561957F4F8F4F9F4F8A
S11311600895E89409C097FB3EF490958095709596
S113117061957F4F8F4F9F4F9923A9F0F92F96E9DF
S1131180BB279395F695879577956795B795F11154
S1131190F8CFFAF4BB0F11F460FF1BC06F5F7F4FF1
S11311A08F4F9F4F16C0882311F096E911C0772303
S11311B021F09EE8872F762F05C0662371F096E80C
S11311C0862F70E060E02AF09A95660F771F881FDB
S11311D0DAF7880F9695879597F9089597F99F6799
S11311E080E870E060E008959FEF80EC08950024AB
S11311F00A941616170618060906089500240A9478
S113120012161306140605060895092E0394000CFD
S113121011F4882352F0BB0F40F4BF2B11F460FF8C
S113122004C06F5F7F4F8F4F9F4F089557FD9058B5
S1131230440F551F59F05F3F71F04795880F97FB96
S1131240991F61F09F3F79F0879508951216130650
S11312501406551FF2CF4695F1DF08C0161617067F
S11312601806991FF1CF86957105610508940895B4
S1131270E894BB2766277727CB0197F908950E9446
S113128052090C9405090E94F70838F00E94FE08E0
S113129020F0952311F00C94EE080C94F40811241A
S11312A00C9439090E94160970F3959FC1F3950FA8
S11312B050E0551F629FF001729FBB27F00DB11DD6
S11312C0639FAA27F00DB11DAA1F649F6627B00D66
S11312D0A11D661F829F2227B00DA11D621F739F4F
S11312E0B00DA11D621F839FA00D611D221F749F5D
S11312F03327A00D611D231F849F600D211D822FA4
S1131300762F6A2F11249F5750409AF0F1F08823CA
S11313104AF0EE0FFF1FBB1F661F771F881F9150F7
S11313205040A9F79E3F510580F00C94EE080C94B0
S113133039095F3FE4F3983ED4F386957795679532
S1131340B795F795E7959F5FC1F7FE2B880F911D21
S11313509695879597F90895FA01EE0FFF1F309639
S113136021053105A1F16115710561F48038BFE3F0
S11313709B0749F168949038810561F08038BFEF8C
S11313809B0741F099234AF5FF3FE105310521050B
S113139019F1E8940894E795D901AA2329F4AB2F0D
S11313A0BE2FF85FD0F310C0FF5F70F4A695E0F78E
S11313B0F73950F019F0FF3A38F49F779F930DD026
S11313C00F9007FC9058089546F00C94F40860E0E0
S11313D070E080E89FE308954FE79F775F934F9312
S11313E03F932F930E94F40A2F913F914F915F9165
S11313F00E943F090C94280A0E941E09E8F09E37B7
S1131400E8F09639B8F49E3848F4672F782F882787
S1131410985FF9CF86957795679593959539D0F32D
S1131420B62FB1706B0F711D811D20F487957795D0
S1131430679593950C945A0A0C94750A0C9439097F
S113144029F416F00C94EE080C9438090C94F40862
S11314500E941E09A8F39638A0F707F80F92E894A3
S11314602BE33AEA48EB5FE70E9455090F920F928B
S11314700F924DB75EB70F920E943C0BE4E5F0E08B
S11314800E94830A4F915F91EF91FF91E595EE1FC2
S1131490FF1F49F0FE57E0684427EE0F441FFA95FA
S11314A0E1F74195550B0E94B60A0F9007FE0C9484
S11314B0AA0A0895882371F4772321F09850872B82
S11314C0762F07C0662311F499270DC09051862BFF
S11314D070E060E02AF09A95660F771F881FDAF7AC
S11314E0880F9695879597F908959F3F31F091500D
S11314F020F4879577956795B795880F911D9695F4
S1131500879597F90895DF93CF931F930F93FF92D5
S1131510EF92DF927B018C01689406C0DA2EEF0112
S11315200E945209FE01E894A591259135914591B7
S11315305591A6F3EF010E94B407FE019701A8019B
S1131540DA9469F7DF90EF90FF900F911F91CF919C
S1131550DF9108959B01AC0160E070E080E89FE3B7
S11315600C9409080C94EE080C94750A0E941E0948
S1131570D8F39923C9F3940F511DA3F3915050400C
S113158094F059F0882332F0660F771F881F91502A
S11315905040C1F79E3F51052CF7880F911D969539
S11315A0879597F908955F3FACF0983E9CF0BB2770
S11315B0869577956795B79508F4B1609395C1F7CB
S11315C0BB0F58F711F460FFE8CF6F5F7F4F8F4F69
S11315D09F4FE3CF0C94390916F00C94750A0C94C0
S11315E0F40868940C94EE080E941E09A8F3992349
S11315F0C1F3AEF3DF93CF931F930F93FF92C92FE1
S1131600DD2788232AF02197660F771F881FDAF7D2
S113161020E030E040E85FEB9FE3883920F0803E33
S113162038F021968F770E949D07ECE7F0E004C024
S11316300E949D07E9EAF0E00E94830A8B01BE0143
S1131640EC01FB2E6F5771097595771F880B990B69
S11316500E94B30828E132E741E35FE30E945209A4
S1131660AF2D9801AE01FF900F911F91CF91DF91A3
S11316700E94B4070C940509FA01DC01AA0FBB1FF0
S11316809B01AC01BF5728F4222733274427507805
S113169020C0B75190F4AB2F002446953795279579
S11316A0011CA395D2F3002071F0220F331F441FB5
S11316B0B395DAF30ED00C949C0761307105A0E861
S11316C08A07B94630F49B01AC016627772788273F
S11316D09078309621F02083318342835383089598
S11316E097FB072E16F4009407D077FD09D00E94CB
S11316F0840B07FC05D03EF4909581959F4F089587
S1131700709561957F4F0895AA1BBB1B51E107C0DB
S1131710AA1FBB1FA617B70710F0A61BB70B881F7D
S1131720991F5A95A9F780959095BC01CD0108950C
S1131730AEE0B0E0EEE9FBE00C94590E0D891E8991
S113174086E08C831A8309838FEF9FE79E838D83C2
S1131750AE01475E5F4F6F89788DCE0101960E947E
S1131760BA0BEF81F885E00FF11F10822E96E4E0AA
S11317700C94750EABE0B0E0E0ECFBE00C944B0E87
S11317806C017B018A01FC0117821682838181FF2F
S1131790CCC1CE0101963C01F6019381F70193FD82
S11317A0859193FF81917F01882309F4BAC1853221
S11317B039F493FD859193FF81917F01853229F45A
S11317C0B60190E00E94B10DE7CF912C212C312C71
S11317D0FFE1F315D8F08B3279F038F4803279F0E8
S11317E08332A1F4232D20611DC08D3261F080333A
S11317F069F4232D216016C0832D8260382EE32DD9
S1131800E4603E2E2AC0F32DF8601DC037FC2DC0C5
S113181020ED280F2A3040F08E32B9F436FC81C115
S1131820232D2064322E19C036FE06C08AE0989E0D
S1131830200D1124922E11C0EAE02E9E200D1124B9
S1131840222EF32DF0623F2E08C08C3621F4832D16
S11318508068382E02C0883641F4F70193FD8591E3
S113186093FF81917F018111B3CF982F9F7D955470
S1131870933028F40C5F1F4F9FE399830DC0833688
S113188031F0833771F0833509F059C021C0F80174
S1131890808189830E5F1F4F88248394912C530188
S11318A013C02801F2E04F0E511CF801A080B18052
S11318B036FE03C0692D70E002C06FEF7FEFC501F3
S11318C00E94A60D4C018201F32DFF773F2E16C016
S11318D0280122E0420E511CF801A080B18036FE9E
S11318E003C0692D70E002C06FEF7FEFC5010E9455
S11318F09B0D4C01F32DF0683F2E820133FC1BC07D
S1131900822D90E088169906B0F4B60180E290E04A
S11319100E94B10D2A94F4CFF50137FC859137FE6E
S113192081915F01B60190E00E94B10D21102A94CB
S113193021E0821A91088114910471F7E8C0843679
S113194011F0893641F5F80137FE07C060817181D5
S1131950828193810C5F1F4F08C060817181072EC3
S1131960000C880B990B0E5F1F4FF32DFF763F2E53
S113197097FF09C090958095709561957F4F8F4F23
S11319809F4FF0683F2E2AE030E0A3010E94ED0D46
S1131990882E861845C0853731F4232D2F7EB22E2C
S11319A02AE030E025C0932D997FB92E8F36C1F0FF
S11319B018F4883579F0B5C0803719F0883721F0EC
S11319C0B0C0E92FE061BE2EB4FE0DC0FB2DF46063
S11319D0BF2E09C034FE0AC0292F2660B22E06C0CD
S11319E028E030E005C020E130E002C020E132E030
S11319F0F801B7FE07C060817181828193810C5F19
S1131A001F4F06C06081718180E090E00E5F1F4F20
S1131A10A3010E94ED0D882E8618FB2DFF773F2E23
S1131A2036FE0DC0232D2E7FA22E891458F434FEC9
S1131A300BC032FC09C0832D8E7EA82E05C0B82CA5
S1131A40A32C03C0B82C01C0B92CA4FE0FC0FE0106
S1131A50E80DF11D8081803321F49A2D997EA92E01
S1131A6009C0A2FE06C0B394B39404C08A2D86783C
S1131A7009F0B394A3FC11C0A0FE06C0B21488F40C
S1131A80280C922C9B180EC0B21460F4B60180E2AC
S1131A9090E00E94B10DB394F7CFB21418F42B1850
S1131AA002C0982C212CA4FE10C0B60180E390E063
S1131AB00E94B10DA2FE17C0A1FC03C088E790E00C
S1131AC002C088E590E0B6010CC08A2D867859F0F2
S1131AD0A1FE02C08BE201C080E2A7FC8DE2B60148
S1131AE090E00E94B10D891438F4B60180E390E0CF
S1131AF00E94B10D9A94F7CF8A94F301E80DF11D79
S1131B008081B60190E00E94B10D8110F5CF2220B2
S1131B1009F442CEB60180E290E00E94B10D2A940D
S1131B20F6CFF6018681978102C08FEF9FEF2B9647
S1131B30E2E10C94670EFC010590615070400110C5
S1131B40D8F7809590958E0F9F1F0895FC016150E2
S1131B50704001900110D8F7809590958E0F9F1FCB
S1131B6008950F931F93CF93DF93FB01238121FDEE
S1131B7003C08FEF9FEF2CC022FF16C04681578110
S1131B80248135814217530744F4A081B1819D011A
S1131B902F5F3F4F318320838C93268137812F5FC2
S1131BA03F4F3783268314C08B01EC01FB01008473
S1131BB0F185E02D0995892BE1F6D80116968D91D2
S1131BC09C911797019617969C938E931697CE0126
S1131BD0DF91CF911F910F910895FA01AA27283020
S1131BE051F1203181F1E8946F936E7F6E5F7F4FE6
S1131BF08F4F9F4FAF4FB1E03ED0B4E03CD0670F62
S1131C00781F891F9A1FA11D680F791F8A1F911DB4
S1131C10A11D6A0F711D811D911DA11D20D009F404
S1131C2068943F912AE0269F11243019305D319346
S1131C30DEF6CF010895462F4770405D4193B3E02F
S1131C400FD0C9F7F6CF462F4F70405D4A3318F0D6
S1131C50495D31FD4052419302D0A9F7EACFB4E087
S1131C60A6959795879577956795BA95C9F700973F
S1131C706105710508959B01AC010A2E06945795E0
S1131C80479537952795BA95C9F7620F731F841F37
S1131C90951FA01D08952F923F924F925F926F92CD
S1131CA07F928F929F92AF92BF92CF92DF92EF92E8
S1131CB0FF920F931F93CF93DF93CDB7DEB7CA1B69
S1131CC0DB0B0FB6F894DEBF0FBECDBF09942A8894
S1131CD0398848885F846E847D848C849B84AA843C
S1131CE0B984C884DF80EE80FD800C811B81AA81C9
S1131CF0B981CE0FD11D0FB6F894DEBF0FBECDBF94
S10B1D00ED010895F894FFCFF2
S1131D084001256425634320200025640042617452
S1131D18746572793A00250054656D703A002E2E68
S1131D2857616974002020202020202020202020B2
S1051D380000A5
S9030000FC
